{
  "contractName": "Prescriptions",
  "abi": [
    {
      "constant": true,
      "inputs": [
        {
          "name": "",
          "type": "string"
        }
      ],
      "name": "doctors",
      "outputs": [
        {
          "name": "walletAddress",
          "type": "string"
        },
        {
          "name": "name",
          "type": "string"
        }
      ],
      "payable": false,
      "stateMutability": "view",
      "type": "function"
    },
    {
      "constant": true,
      "inputs": [],
      "name": "pId",
      "outputs": [
        {
          "name": "",
          "type": "int256"
        }
      ],
      "payable": false,
      "stateMutability": "view",
      "type": "function"
    },
    {
      "constant": true,
      "inputs": [
        {
          "name": "",
          "type": "int256"
        }
      ],
      "name": "prescriptions",
      "outputs": [
        {
          "name": "id",
          "type": "int256"
        },
        {
          "name": "medication",
          "type": "string"
        },
        {
          "name": "price",
          "type": "uint256"
        },
        {
          "name": "doctorId",
          "type": "string"
        },
        {
          "name": "patientId",
          "type": "string"
        },
        {
          "name": "state",
          "type": "string"
        }
      ],
      "payable": false,
      "stateMutability": "view",
      "type": "function"
    },
    {
      "constant": true,
      "inputs": [],
      "name": "prId",
      "outputs": [
        {
          "name": "",
          "type": "int256"
        }
      ],
      "payable": false,
      "stateMutability": "view",
      "type": "function"
    },
    {
      "constant": true,
      "inputs": [
        {
          "name": "",
          "type": "int256"
        }
      ],
      "name": "patients",
      "outputs": [
        {
          "name": "pid",
          "type": "int256"
        },
        {
          "name": "wallet",
          "type": "string"
        },
        {
          "name": "name",
          "type": "string"
        }
      ],
      "payable": false,
      "stateMutability": "view",
      "type": "function"
    },
    {
      "constant": true,
      "inputs": [
        {
          "name": "",
          "type": "uint256"
        }
      ],
      "name": "medications",
      "outputs": [
        {
          "name": "id",
          "type": "uint256"
        },
        {
          "name": "name",
          "type": "string"
        },
        {
          "name": "price",
          "type": "uint256"
        }
      ],
      "payable": false,
      "stateMutability": "view",
      "type": "function"
    },
    {
      "constant": true,
      "inputs": [],
      "name": "adminAddress",
      "outputs": [
        {
          "name": "",
          "type": "string"
        }
      ],
      "payable": false,
      "stateMutability": "view",
      "type": "function"
    },
    {
      "inputs": [],
      "payable": false,
      "stateMutability": "nonpayable",
      "type": "constructor"
    },
    {
      "constant": false,
      "inputs": [
        {
          "name": "_walletAddress",
          "type": "string"
        },
        {
          "name": "_name",
          "type": "string"
        }
      ],
      "name": "addDoctor",
      "outputs": [],
      "payable": false,
      "stateMutability": "nonpayable",
      "type": "function"
    },
    {
      "constant": false,
      "inputs": [
        {
          "name": "WAddress",
          "type": "string"
        },
        {
          "name": "name",
          "type": "string"
        }
      ],
      "name": "addPatient",
      "outputs": [],
      "payable": false,
      "stateMutability": "nonpayable",
      "type": "function"
    },
    {
      "constant": false,
      "inputs": [
        {
          "name": "medication",
          "type": "uint256"
        },
        {
          "name": "doctorId",
          "type": "string"
        },
        {
          "name": "patientId",
          "type": "string"
        }
      ],
      "name": "createPrescription",
      "outputs": [],
      "payable": false,
      "stateMutability": "nonpayable",
      "type": "function"
    },
    {
      "constant": false,
      "inputs": [
        {
          "name": "id",
          "type": "uint256"
        },
        {
          "name": "price",
          "type": "uint256"
        }
      ],
      "name": "changeMedicationPrice",
      "outputs": [],
      "payable": false,
      "stateMutability": "nonpayable",
      "type": "function"
    },
    {
      "constant": false,
      "inputs": [
        {
          "name": "prescriptionId",
          "type": "int256"
        }
      ],
      "name": "buyTheMedication",
      "outputs": [],
      "payable": true,
      "stateMutability": "payable",
      "type": "function"
    }
  ],
  "bytecode": "0x600080805560015560e0604052602a608081815290620017fa60a03980516200003191600291602090910190620005fe565b503480156200003f57600080fd5b50620000a06040518060600160405280602a8152602001620017fa602a91396040518060400160405280600c81526020017f4a6f686e2053756c6976616e00000000000000000000000000000000000000008152506200052f60201b60201c565b620001006040518060600160405280602a815260200162001824602a91396040518060400160405280600c81526020017f4b61746520486f706b696e7300000000000000000000000000000000000000008152506200052f60201b60201c565b620001606040518060600160405280602a815260200162001728602a91396040518060400160405280600981526020017f4a616d6573204b617400000000000000000000000000000000000000000000008152506200052f60201b60201c565b620001c06040518060600160405280602a8152602001620018a2602a91396040518060400160405280600c81526020017f4265726e69652053616e647900000000000000000000000000000000000000008152506200052f60201b60201c565b620002206040518060600160405280602a815260200162001878602a91396040518060400160405280600c81526020017f416c6c79204d6344656d6f6e00000000000000000000000000000000000000008152506200052f60201b60201c565b620002806040518060600160405280602a815260200162001752602a91396040518060400160405280600c81526020017f476f72646f6e2053616d657300000000000000000000000000000000000000008152506200052f60201b60201c565b620002e06040518060600160405280602a81526020016200177c602a91396040518060400160405280600a81526020017f4b6174792046696c6d73000000000000000000000000000000000000000000008152506200052f60201b60201c565b620003406040518060600160405280602a81526020016200184e602a91396040518060400160405280600c81526020017f56696c6d612046616e73617300000000000000000000000000000000000000008152506200052f60201b60201c565b620003a06040518060600160405280602a8152602001620017d0602a91396040518060400160405280600a81526020017f4761626279204f6c7773000000000000000000000000000000000000000000008152506200052f60201b60201c565b620004006040518060600160405280602a8152602001620017a6602a91396040518060400160405280600b81526020017f5461796c6f722046756e730000000000000000000000000000000000000000008152506200052f60201b60201c565b6200044a60006040518060400160405280600981526020017f56656e6f666178696e00000000000000000000000000000000000000000000008152506001620005a660201b60201c565b6200049460016040518060400160405280601181526020017f44657874726f616d70686574616d696e6500000000000000000000000000000081525060e1620005a660201b60201c565b620004de60026040518060400160405280601581526020017f536f6d65206f74686572206d656469636174696f6e00000000000000000000008152506005620005a660201b60201c565b6200052960036040518060400160405280600581526020017f4d656d6573000000000000000000000000000000000000000000000000000000815250610309620005a660201b60201c565b620006a3565b6040805160608101825260018054808352602080840187815284860187905260009283526004825294909120835181559351805193949362000579938501929190910190620005fe565b506040820151805162000597916002840191602090910190620005fe565b50506001805481019055505050565b604080516060810182528481526020808201858152828401859052600087815260068352939093208251815592518051929392620005eb9260018501920190620005fe565b5060408201518160020155905050505050565b828054600181600116156101000203166002900490600052602060002090601f016020900481019282601f106200064157805160ff191683800117855562000671565b8280016001018555821562000671579182015b828111156200067157825182559160200191906001019062000654565b506200067f92915062000683565b5090565b620006a091905b808211156200067f57600081556001016200068a565b90565b61107580620006b36000396000f3fe6080604052600436106100a75760003560e01c80637b9fc959116100645780637b9fc9591461018157806394300f79146101b0578063dc093978146101d0578063f03166e5146101f0578063fa8547f614610210578063fc6f94681461023f576100a7565b806305c35ce5146100ac5780630c6b8705146100e3578063239ee6c1146101055780632c5e6460146101275780633e069114146101595780634ab511151461016c575b600080fd5b3480156100b857600080fd5b506100cc6100c7366004610c84565b610261565b6040516100da929190610f29565b60405180910390f35b3480156100ef57600080fd5b506100f86103ac565b6040516100da9190610e58565b34801561011157600080fd5b50610125610120366004610cb9565b6103b2565b005b34801561013357600080fd5b50610147610142366004610c5e565b610425565b6040516100da96959493929190610ea3565b610125610167366004610c5e565b610684565b34801561017857600080fd5b506100f86106c4565b34801561018d57600080fd5b506101a161019c366004610c5e565b6106ca565b6040516100da93929190610e66565b3480156101bc57600080fd5b506101256101cb366004610d9f565b610803565b3480156101dc57600080fd5b506101256101eb366004610cb9565b610818565b3480156101fc57600080fd5b5061012561020b366004610d22565b610887565b34801561021c57600080fd5b5061023061022b366004610c5e565b610a26565b6040516100da93929190610f4e565b34801561024b57600080fd5b50610254610ad3565b6040516100da9190610f18565b805160208183018101805160038252928201938201939093209190925280546040805160026001841615610100026000190190931692909204601f81018590048502830185019091528082529192909183918301828280156103045780601f106102d957610100808354040283529160200191610304565b820191906000526020600020905b8154815290600101906020018083116102e757829003601f168201915b505050505090806001018054600181600116156101000203166002900480601f0160208091040260200160405190810160405280929190818152602001828054600181600116156101000203166002900480156103a25780601f10610377576101008083540402835291602001916103a2565b820191906000526020600020905b81548152906001019060200180831161038557829003601f168201915b5050505050905082565b60015481565b604080516060810182526001805480835260208084018781528486018790526000928352600482529490912083518155935180519394936103fa938501929190910190610b5e565b5060408201518051610416916002840191602090910190610b5e565b50506001805481019055505050565b6005602090815260009182526040918290208054600180830180548651600293821615610100026000190190911692909204601f8101869004860283018601909652858252919492939092908301828280156104c25780601f10610497576101008083540402835291602001916104c2565b820191906000526020600020905b8154815290600101906020018083116104a557829003601f168201915b505050506002838101546003850180546040805160206001841615610100026000190190931695909504601f81018390048302860183019091528085529596929592945090919083018282801561055a5780601f1061052f5761010080835404028352916020019161055a565b820191906000526020600020905b81548152906001019060200180831161053d57829003601f168201915b5050505060048301805460408051602060026001851615610100026000190190941693909304601f81018490048402820184019092528181529495949350908301828280156105ea5780601f106105bf576101008083540402835291602001916105ea565b820191906000526020600020905b8154815290600101906020018083116105cd57829003601f168201915b5050505060058301805460408051602060026001851615610100026000190190941693909304601f810184900484028201840190925281815294959493509083018282801561067a5780601f1061064f5761010080835404028352916020019161067a565b820191906000526020600020905b81548152906001019060200180831161065d57829003601f168201915b5050505050905086565b60408051808201825260018152600160f81b603102602080830191825260008581526005918290529390932091516106c0939290920191610b5e565b5050565b60005481565b6004602090815260009182526040918290208054600180830180548651600293821615610100026000190190911692909204601f8101869004860283018601909652858252919492939092908301828280156107675780601f1061073c57610100808354040283529160200191610767565b820191906000526020600020905b81548152906001019060200180831161074a57829003601f168201915b50505060028085018054604080516020601f60001961010060018716150201909416959095049283018590048502810185019091528181529596959450909250908301828280156107f95780601f106107ce576101008083540402835291602001916107f9565b820191906000526020600020905b8154815290600101906020018083116107dc57829003601f168201915b5050505050905083565b60009182526006602052604090912060020155565b60405180604001604052808381526020018281525060038360405161083d9190610e45565b90815260200160405180910390206000820151816000019080519060200190610867929190610b5e565b5060208281015180516108809260018501920190610b5e565b5050505050565b6040518060c001604052806000548152602001600660008681526020019081526020016000206001018054600181600116156101000203166002900480601f0160208091040260200160405190810160405280929190818152602001828054600181600116156101000203166002900480156109445780601f1061091957610100808354040283529160200191610944565b820191906000526020600020905b81548152906001019060200180831161092757829003601f168201915b50505091835250506000858152600660209081526040808320600201548285015280840187905260608401869052805180820182526001808252600160fc1b6003028285015260809095015282548352600582529091208351815583820151805191936109b79390850192910190610b5e565b5060408201516002820155606082015180516109dd916003840191602090910190610b5e565b50608082015180516109f9916004840191602090910190610b5e565b5060a08201518051610a15916005840191602090910190610b5e565b505060008054600101905550505050565b6006602090815260009182526040918290208054600180830180548651600293821615610100026000190190911692909204601f810186900486028301860190965285825291949293909290830182828015610ac35780601f10610a9857610100808354040283529160200191610ac3565b820191906000526020600020905b815481529060010190602001808311610aa657829003601f168201915b5050505050908060020154905083565b6002805460408051602060018416156101000260001901909316849004601f81018490048402820184019092528181529291830182828015610b565780601f10610b2b57610100808354040283529160200191610b56565b820191906000526020600020905b815481529060010190602001808311610b3957829003601f168201915b505050505081565b828054600181600116156101000203166002900490600052602060002090601f016020900481019282601f10610b9f57805160ff1916838001178555610bcc565b82800160010185558215610bcc579182015b82811115610bcc578251825591602001919060010190610bb1565b50610bd8929150610bdc565b5090565b610bf691905b80821115610bd85760008155600101610be2565b90565b8035610c0481611024565b92915050565b600082601f830112610c1b57600080fd5b8135610c2e610c2982610fa4565b610f7d565b91508082526020830160208301858383011115610c4a57600080fd5b610c55838284610fde565b50505092915050565b600060208284031215610c7057600080fd5b6000610c7c8484610bf9565b949350505050565b600060208284031215610c9657600080fd5b813567ffffffffffffffff811115610cad57600080fd5b610c7c84828501610c0a565b60008060408385031215610ccc57600080fd5b823567ffffffffffffffff811115610ce357600080fd5b610cef85828601610c0a565b925050602083013567ffffffffffffffff811115610d0c57600080fd5b610d1885828601610c0a565b9150509250929050565b600080600060608486031215610d3757600080fd5b6000610d438686610bf9565b935050602084013567ffffffffffffffff811115610d6057600080fd5b610d6c86828701610c0a565b925050604084013567ffffffffffffffff811115610d8957600080fd5b610d9586828701610c0a565b9150509250925092565b60008060408385031215610db257600080fd5b6000610dbe8585610bf9565b9250506020610d1885828601610bf9565b610dd881610bf6565b82525050565b6000610de982610fcc565b610df38185610fd9565b9350610e03818560208601610fea565b9290920192915050565b6000610e1882610fcc565b610e228185610fd0565b9350610e32818560208601610fea565b610e3b8161101a565b9093019392505050565b6000610e518284610dde565b9392505050565b60208101610c048284610dcf565b60608101610e748286610dcf565b8181036020830152610e868185610e0d565b90508181036040830152610e9a8184610e0d565b95945050505050565b60c08101610eb18289610dcf565b8181036020830152610ec38188610e0d565b9050610ed26040830187610dcf565b8181036060830152610ee48186610e0d565b90508181036080830152610ef88185610e0d565b905081810360a0830152610f0c8184610e0d565b98975050505050505050565b60208082528101610e518184610e0d565b60408082528101610f3a8185610e0d565b90508181036020830152610c7c8184610e0d565b60608101610f5c8286610dcf565b8181036020830152610f6e8185610e0d565b9050610c7c6040830184610dcf565b60405181810167ffffffffffffffff81118282101715610f9c57600080fd5b604052919050565b600067ffffffffffffffff821115610fbb57600080fd5b506020601f91909101601f19160190565b5190565b90815260200190565b919050565b82818337506000910152565b60005b83811015611005578181015183820152602001610fed565b83811115611014576000848401525b50505050565b601f01601f191690565b61102d81610bf6565b811461103857600080fd5b5056fea265627a7a72305820a83541f1afef774d56e7ebcd187817ce3710d77e851f9c319685e6fe999c61826c6578706572696d656e74616cf50037307861643431464644373445624233653739306541663332304233623237383736353664314442424461307839624161613137393644654230364637333139336142353932443439313438326544316534653235307844663743313030323245626630453231363738384332346137423637626262303832314334333266307835413538374341383439363442376432383245366534633637353666353531653931653261343435307833463366313832394131353666313435623463386241323334383332346642664631333365396634307830363434316339446133306233323865323342343435334138463132384443303336373146336363307839614561383336446132393639624437333937423539354362386262653032333934634162643332307836306135346438344638643664644139464646374539316632303638353338426434633444354245307837383666636164383334413243356231623042613741393844393331394533633336353432444636307833334543393061433232336139323865333034346632383436363146343845396337303737463461",
  "source": "pragma solidity ^0.5.0;\r\npragma experimental ABIEncoderV2;\r\n\r\ncontract Prescriptions {\r\n    int public prId = 0;\r\n    int public pId = 0;\r\n\r\n    string public adminAddress = \"0x06441c9Da30b328e23B4453A8F128DC03671F3cc\";\r\n    // Model a doctor\r\n    struct Doctor\r\n    {\r\n        string walletAddress;\r\n        string name;\r\n    }\r\n\r\n    struct Prescription\r\n    {\r\n        int id;\r\n        string medication;\r\n        uint price;\r\n        string doctorId;\r\n        string patientId;\r\n        string state; // 0 - prescribed; 1 - purchased\r\n    }\r\n\r\n    struct Medication\r\n    {\r\n        uint id;\r\n        string name;\r\n        uint price;\r\n    }\r\n\r\n    struct Patient\r\n    {\r\n        int pid;\r\n        string wallet;\r\n        string name;\r\n    }\r\n\r\n    mapping(string => Doctor) public doctors;\r\n\r\n    mapping(int => Patient) public patients;\r\n\r\n    mapping(int => Prescription) public prescriptions;\r\n\r\n    mapping(uint => Medication) public medications;\r\n\r\n    // Called when the contract is being deployed (adds all users into the prescription system)\r\n    constructor() public\r\n    {\r\n        addPatient(\"0x06441c9Da30b328e23B4453A8F128DC03671F3cc\", \"John Sulivan\");\r\n        addPatient(\"0x9aEa836Da2969bD7397B595Cb8bbe02394cAbd32\", \"Kate Hopkins\");\r\n        addPatient(\"0xad41FFD74EbB3e790eAf320B3b2787656d1DBBDa\", \"James Kat\");\r\n        addPatient(\"0x33EC90aC223a928e3044f284661F48E9c7077F4a\", \"Bernie Sandy\");\r\n        addPatient(\"0x786fcad834A2C5b1b0Ba7A98D9319E3c36542DF6\", \"Ally McDemon\");\r\n        addPatient(\"0x9bAaa1796DeB06F73193aB592D491482eD1e4e25\", \"Gordon Sames\");\r\n        addPatient(\"0xDf7C10022Ebf0E216788C24a7B67bbb0821C432f\", \"Katy Films\");\r\n        addPatient(\"0x60a54d84F8d6ddA9FFF7E91f2068538Bd4c4D5BE\", \"Vilma Fansas\");\r\n        addPatient(\"0x3F3f1829A156f145b4c8bA2348324fBfF133e9f4\", \"Gabby Olws\");\r\n        addPatient(\"0x5A587CA84964B7d282E6e4c6756f551e91e2a445\", \"Taylor Funs\");\r\n\r\n        addMedication(0, \"Venofaxin\", 1);\r\n        addMedication(1, \"Dextroamphetamine\", 225);\r\n        addMedication(2, \"Some other medication\", 5);\r\n        addMedication(3, \"Memes\", 777);\r\n    }\r\n\r\n    // Add a new doctor to the blockchain\r\n    function addDoctor(string memory _walletAddress, string memory _name) public\r\n    {\r\n        doctors[_walletAddress] = Doctor(_walletAddress, _name);\r\n    }\r\n\r\n    // Add a new patient to the blockchain\r\n    function addPatient(string memory WAddress, string memory name) public\r\n    {\r\n        patients[pId] = Patient(pId, WAddress, name);\r\n        pId++;\r\n    }\r\n\r\n    function addMedication(uint id, string memory name, uint price) private\r\n    {\r\n        medications[id] = Medication(id, name, price);\r\n    }\r\n\r\n    // Create a new prescription and add it to the blockchain\r\n    function createPrescription(uint medication,\r\n                                string memory doctorId, string memory patientId) public\r\n    {\r\n        prescriptions[prId] = Prescription(prId, medications[medication].name, medications[medication].price, doctorId, patientId, \"0\");\r\n        prId++;\r\n    }\r\n\r\n    function changeMedicationPrice(uint id, uint price) public\r\n    {\r\n        medications[id].price = price;\r\n    }\r\n\r\n    // Compares two String memory type variables\r\n    function comp(string memory a, string memory b) private returns (bool)\r\n    {\r\n        return (keccak256(abi.encodePacked((a))) == keccak256(abi.encodePacked((b))) );\r\n    }\r\n\r\n    function buyTheMedication(int prescriptionId) public payable\r\n    {\r\n        prescriptions[prescriptionId].state = \"1\";\r\n/*         address addr = 0x06441c9Da30b328e23B4453A8F128DC03671F3cc;\r\n        address payable wallet = address(uint160(addr));\r\n        uint price = prescriptions[prescriptionId].price;\r\n        msg.sender.transfer(price*10**18); */\r\n\r\n    } \r\n}\r\n",
  "sourcePath": "C:/xampp/htdocs/Blockchain/ToDoList/contracts/Prescriptions.sol",
  "compiler": {
    "name": "solc",
    "version": "0.5.8+commit.23d335f2.Emscripten.clang"
  },
  "schemaVersion": "3.0.16",
  "updatedAt": "2019-12-19T13:22:37.052Z",
  "devdoc": {
    "methods": {}
  },
  "userdoc": {
    "methods": {}
  }
}